{
  "_format": "hh-sol-artifact-1",
  "contractName": "Factory",
  "sourceName": "contracts/Factory.sol",
  "abi": [
    {
      "inputs": [],
      "stateMutability": "nonpayable",
      "type": "constructor"
    },
    {
      "anonymous": false,
      "inputs": [
        {
          "indexed": false,
          "internalType": "address",
          "name": "sender",
          "type": "address"
        },
        {
          "indexed": false,
          "internalType": "uint256",
          "name": "tokenId",
          "type": "uint256"
        },
        {
          "indexed": false,
          "internalType": "bool",
          "name": "active",
          "type": "bool"
        }
      ],
      "name": "ActiveSet",
      "type": "event"
    },
    {
      "anonymous": false,
      "inputs": [
        {
          "indexed": false,
          "internalType": "address",
          "name": "sender",
          "type": "address"
        },
        {
          "indexed": false,
          "internalType": "uint256",
          "name": "tokenId",
          "type": "uint256"
        }
      ],
      "name": "NewBadgeNFTMinted",
      "type": "event"
    },
    {
      "anonymous": false,
      "inputs": [
        {
          "indexed": false,
          "internalType": "address",
          "name": "sender",
          "type": "address"
        },
        {
          "indexed": false,
          "internalType": "uint256",
          "name": "tokenId",
          "type": "uint256"
        }
      ],
      "name": "NewCreatorNFTMinted",
      "type": "event"
    },
    {
      "inputs": [
        {
          "internalType": "uint256",
          "name": "",
          "type": "uint256"
        }
      ],
      "name": "collections",
      "outputs": [
        {
          "internalType": "contract BadgeNFT",
          "name": "",
          "type": "address"
        }
      ],
      "stateMutability": "view",
      "type": "function"
    },
    {
      "inputs": [
        {
          "internalType": "string",
          "name": "_name",
          "type": "string"
        },
        {
          "internalType": "string",
          "name": "_symbol",
          "type": "string"
        },
        {
          "internalType": "string",
          "name": "_description",
          "type": "string"
        },
        {
          "internalType": "string",
          "name": "_imageUri",
          "type": "string"
        }
      ],
      "name": "createCreatorNFT",
      "outputs": [],
      "stateMutability": "nonpayable",
      "type": "function"
    },
    {
      "inputs": [
        {
          "internalType": "uint256",
          "name": "_id",
          "type": "uint256"
        },
        {
          "internalType": "address",
          "name": "_address",
          "type": "address"
        }
      ],
      "name": "getAddressNFTInCollection",
      "outputs": [
        {
          "internalType": "uint256",
          "name": "",
          "type": "uint256"
        }
      ],
      "stateMutability": "view",
      "type": "function"
    },
    {
      "inputs": [
        {
          "internalType": "uint256",
          "name": "_id",
          "type": "uint256"
        }
      ],
      "name": "getCollection",
      "outputs": [
        {
          "internalType": "contract BadgeNFT",
          "name": "",
          "type": "address"
        }
      ],
      "stateMutability": "view",
      "type": "function"
    },
    {
      "inputs": [
        {
          "internalType": "uint256",
          "name": "_id",
          "type": "uint256"
        }
      ],
      "name": "getCreatorNFT",
      "outputs": [
        {
          "internalType": "string",
          "name": "",
          "type": "string"
        }
      ],
      "stateMutability": "view",
      "type": "function"
    },
    {
      "inputs": [
        {
          "internalType": "uint256",
          "name": "_id",
          "type": "uint256"
        }
      ],
      "name": "getCreatorNFTActive",
      "outputs": [
        {
          "internalType": "bool",
          "name": "",
          "type": "bool"
        }
      ],
      "stateMutability": "view",
      "type": "function"
    },
    {
      "inputs": [
        {
          "internalType": "uint256",
          "name": "_id",
          "type": "uint256"
        },
        {
          "internalType": "address",
          "name": "_address",
          "type": "address"
        }
      ],
      "name": "isCreator",
      "outputs": [
        {
          "internalType": "bool",
          "name": "",
          "type": "bool"
        }
      ],
      "stateMutability": "view",
      "type": "function"
    },
    {
      "inputs": [
        {
          "internalType": "uint256",
          "name": "_id",
          "type": "uint256"
        }
      ],
      "name": "makeABadgeNFT",
      "outputs": [],
      "stateMutability": "nonpayable",
      "type": "function"
    },
    {
      "inputs": [
        {
          "internalType": "uint256",
          "name": "_id",
          "type": "uint256"
        },
        {
          "internalType": "bool",
          "name": "_isActive",
          "type": "bool"
        }
      ],
      "name": "setCreatorNFTActive",
      "outputs": [],
      "stateMutability": "nonpayable",
      "type": "function"
    }
  ],
  "bytecode": "0x608060405234801561001057600080fd5b5061001f61002460201b60201c565b61009c565b6040516100309061008e565b604051809103906000f08015801561004c573d6000803e3d6000fd5b506000806101000a81548173ffffffffffffffffffffffffffffffffffffffff021916908373ffffffffffffffffffffffffffffffffffffffff160217905550565b614187806200585383390190565b6157a780620000ac6000396000f3fe60806040523480156200001157600080fd5b5060043610620000a05760003560e01c8063bd2ab90f116200006f578063bd2ab90f1462000167578063d1a6c01f1462000187578063dbd7d25e14620001bd578063df03ee7a14620001dd578063fdbda0ec146200021357620000a0565b8063093811a114620000a55780630f78f0a814620000c55780635a1f3c2814620000fb5780636f3829611462000131575b600080fd5b620000c36004803603810190620000bd919062000bcc565b62000249565b005b620000e36004803603810190620000dd919062000cf4565b62000355565b604051620000f2919062000fe4565b60405180910390f35b62000119600480360381019062000113919062000c9c565b620003f8565b60405162000128919062000ec6565b60405180910390f35b6200014f600480360381019062000149919062000c9c565b62000435565b6040516200015e919062000ee3565b60405180910390f35b6200018560048036038101906200017f919062000c9c565b620004f2565b005b620001a560048036038101906200019f919062000c9c565b6200066b565b604051620001b4919062000ea9565b60405180910390f35b620001db6004803603810190620001d5919062000d35565b62000724565b005b620001fb6004803603810190620001f5919062000cf4565b620007f6565b6040516200020a919062000ea9565b60405180910390f35b6200023160048036038101906200022b919062000c9c565b620008dd565b60405162000240919062000ec6565b60405180910390f35b60008060009054906101000a900473ffffffffffffffffffffffffffffffffffffffff1673ffffffffffffffffffffffffffffffffffffffff1663634a22fa8685856040518463ffffffff1660e01b8152600401620002ab9392919062000f07565b602060405180830381600087803b158015620002c657600080fd5b505af1158015620002db573d6000803e3d6000fd5b505050506040513d601f19601f8201168201806040525081019062000301919062000cc8565b905062000312818686868662000910565b507fbc6de13e88ade75989afa9102f04e1f7f7b667e6944e96172569e4e1285b7da332826040516200034692919062000e3f565b60405180910390a15050505050565b60006200036283620003f8565b73ffffffffffffffffffffffffffffffffffffffff1663c0d2d057836040518263ffffffff1660e01b81526004016200039c919062000e22565b60206040518083038186803b158015620003b557600080fd5b505afa158015620003ca573d6000803e3d6000fd5b505050506040513d601f19601f82011682018060405250810190620003f0919062000cc8565b905092915050565b60006001600083815260200190815260200160002060009054906101000a900473ffffffffffffffffffffffffffffffffffffffff169050919050565b606060008054906101000a900473ffffffffffffffffffffffffffffffffffffffff1673ffffffffffffffffffffffffffffffffffffffff1663c87b56dd836040518263ffffffff1660e01b815260040162000492919062000fe4565b60006040518083038186803b158015620004ab57600080fd5b505afa158015620004c0573d6000803e3d6000fd5b505050506040513d6000823e3d601f19601f82011682018060405250810190620004eb919062000b87565b9050919050565b600073ffffffffffffffffffffffffffffffffffffffff166001600083815260200190815260200160002060009054906101000a900473ffffffffffffffffffffffffffffffffffffffff1673ffffffffffffffffffffffffffffffffffffffff16141562000598576040517f08c379a00000000000000000000000000000000000000000000000000000000081526004016200058f9062000fc2565b60405180910390fd5b6001600082815260200190815260200160002060009054906101000a900473ffffffffffffffffffffffffffffffffffffffff1673ffffffffffffffffffffffffffffffffffffffff1663332f31dd6040518163ffffffff1660e01b8152600401600060405180830381600087803b1580156200061457600080fd5b505af115801562000629573d6000803e3d6000fd5b505050507ffbd3930499eb94990a1993baa270e2320080fa9f0507c3f1c0ff5178bec535b332826040516200066092919062000e3f565b60405180910390a150565b60008060009054906101000a900473ffffffffffffffffffffffffffffffffffffffff1673ffffffffffffffffffffffffffffffffffffffff16638033d581836040518263ffffffff1660e01b8152600401620006c9919062000fe4565b60206040518083038186803b158015620006e257600080fd5b505afa158015620006f7573d6000803e3d6000fd5b505050506040513d601f19601f820116820180604052508101906200071d919062000b5b565b9050919050565b60008054906101000a900473ffffffffffffffffffffffffffffffffffffffff1673ffffffffffffffffffffffffffffffffffffffff1663e60a955d83836040518363ffffffff1660e01b81526004016200078192919062001001565b600060405180830381600087803b1580156200079c57600080fd5b505af1158015620007b1573d6000803e3d6000fd5b505050507f198ed358a980098ca589568b578cae7624bfb1dd0e3e9f3f02d59a59e8046e12328383604051620007ea9392919062000e6c565b60405180910390a15050565b60008173ffffffffffffffffffffffffffffffffffffffff1660008054906101000a900473ffffffffffffffffffffffffffffffffffffffff1673ffffffffffffffffffffffffffffffffffffffff16636352211e856040518263ffffffff1660e01b81526004016200086a919062000fe4565b60206040518083038186803b1580156200088357600080fd5b505afa15801562000898573d6000803e3d6000fd5b505050506040513d601f19601f82011682018060405250810190620008be919062000b2f565b73ffffffffffffffffffffffffffffffffffffffff1614905092915050565b60016020528060005260406000206000915054906101000a900473ffffffffffffffffffffffffffffffffffffffff1681565b600080858585856040516200092590620009b3565b62000934949392919062000f59565b604051809103906000f08015801562000951573d6000803e3d6000fd5b509050806001600089815260200190815260200160002060006101000a81548173ffffffffffffffffffffffffffffffffffffffff021916908373ffffffffffffffffffffffffffffffffffffffff1602179055508091505095945050505050565b6144fe806200127483390190565b6000620009d8620009d28462001057565b6200102e565b905082815260208101848484011115620009f157600080fd5b620009fe8482856200111b565b509392505050565b600062000a1d62000a178462001057565b6200102e565b90508281526020810184848401111562000a3657600080fd5b62000a438482856200112a565b509392505050565b60008135905062000a5c8162001225565b92915050565b60008151905062000a738162001225565b92915050565b60008135905062000a8a816200123f565b92915050565b60008151905062000aa1816200123f565b92915050565b600082601f83011262000ab957600080fd5b813562000acb848260208601620009c1565b91505092915050565b600082601f83011262000ae657600080fd5b815162000af884826020860162000a06565b91505092915050565b60008135905062000b128162001259565b92915050565b60008151905062000b298162001259565b92915050565b60006020828403121562000b4257600080fd5b600062000b528482850162000a62565b91505092915050565b60006020828403121562000b6e57600080fd5b600062000b7e8482850162000a90565b91505092915050565b60006020828403121562000b9a57600080fd5b600082015167ffffffffffffffff81111562000bb557600080fd5b62000bc38482850162000ad4565b91505092915050565b6000806000806080858703121562000be357600080fd5b600085013567ffffffffffffffff81111562000bfe57600080fd5b62000c0c8782880162000aa7565b945050602085013567ffffffffffffffff81111562000c2a57600080fd5b62000c388782880162000aa7565b935050604085013567ffffffffffffffff81111562000c5657600080fd5b62000c648782880162000aa7565b925050606085013567ffffffffffffffff81111562000c8257600080fd5b62000c908782880162000aa7565b91505092959194509250565b60006020828403121562000caf57600080fd5b600062000cbf8482850162000b01565b91505092915050565b60006020828403121562000cdb57600080fd5b600062000ceb8482850162000b18565b91505092915050565b6000806040838503121562000d0857600080fd5b600062000d188582860162000b01565b925050602062000d2b8582860162000a4b565b9150509250929050565b6000806040838503121562000d4957600080fd5b600062000d598582860162000b01565b925050602062000d6c8582860162000a79565b9150509250929050565b62000d8181620010a9565b82525050565b62000d9281620010bd565b82525050565b62000da381620010f3565b82525050565b600062000db6826200108d565b62000dc2818562001098565b935062000dd48185602086016200112a565b62000ddf81620011c5565b840191505092915050565b600062000df960268362001098565b915062000e0682620011d6565b604082019050919050565b62000e1c81620010e9565b82525050565b600060208201905062000e39600083018462000d76565b92915050565b600060408201905062000e56600083018562000d76565b62000e65602083018462000e11565b9392505050565b600060608201905062000e83600083018662000d76565b62000e92602083018562000e11565b62000ea1604083018462000d87565b949350505050565b600060208201905062000ec0600083018462000d87565b92915050565b600060208201905062000edd600083018462000d98565b92915050565b6000602082019050818103600083015262000eff818462000da9565b905092915050565b6000606082019050818103600083015262000f23818662000da9565b9050818103602083015262000f39818562000da9565b9050818103604083015262000f4f818462000da9565b9050949350505050565b6000608082019050818103600083015262000f75818762000da9565b9050818103602083015262000f8b818662000da9565b9050818103604083015262000fa1818562000da9565b9050818103606083015262000fb7818462000da9565b905095945050505050565b6000602082019050818103600083015262000fdd8162000dea565b9050919050565b600060208201905062000ffb600083018462000e11565b92915050565b600060408201905062001018600083018562000e11565b62001027602083018462000d87565b9392505050565b60006200103a6200104d565b905062001048828262001160565b919050565b6000604051905090565b600067ffffffffffffffff82111562001075576200107462001196565b5b6200108082620011c5565b9050602081019050919050565b600081519050919050565b600082825260208201905092915050565b6000620010b682620010c9565b9050919050565b60008115159050919050565b600073ffffffffffffffffffffffffffffffffffffffff82169050919050565b6000819050919050565b6000620011008262001107565b9050919050565b60006200111482620010c9565b9050919050565b82818337600083830152505050565b60005b838110156200114a5780820151818401526020810190506200112d565b838111156200115a576000848401525b50505050565b6200116b82620011c5565b810181811067ffffffffffffffff821117156200118d576200118c62001196565b5b80604052505050565b7f4e487b7100000000000000000000000000000000000000000000000000000000600052604160045260246000fd5b6000601f19601f8301169050919050565b7f54686572652773206e6f204e465420636f6c6c656374696f6e2077697468207460008201527f6869732069640000000000000000000000000000000000000000000000000000602082015250565b6200123081620010a9565b81146200123c57600080fd5b50565b6200124a81620010bd565b81146200125657600080fd5b50565b6200126481620010e9565b81146200127057600080fd5b5056fe60806040523480156200001157600080fd5b50604051620044fe380380620044fe833981810160405281019062000037919062000616565b8383816000908051906020019062000051929190620004f4565b5080600190805190602001906200006a929190620004f4565b5050506200008d620000816200017360201b60201c565b6200017b60201b60201c565b620000d86040518060400160405280601f81526020017f696e697469616c697a696e67204261646765204e465420436f6e7472616374008152506200024160201b620011391760201c565b620000ef6008620002e460201b620011d21760201c565b60006200012c8584846040516020016200010c9392919062000821565b604051602081830303815290604052620002fa60201b620011e81760201c565b9050806040516020016200014191906200088c565b6040516020818303038152906040526009908051906020019062000167929190620004f4565b50505050505062000c98565b600033905090565b6000600760009054906101000a900473ffffffffffffffffffffffffffffffffffffffff16905081600760006101000a81548173ffffffffffffffffffffffffffffffffffffffff021916908373ffffffffffffffffffffffffffffffffffffffff1602179055508173ffffffffffffffffffffffffffffffffffffffff168173ffffffffffffffffffffffffffffffffffffffff167f8be0079c531659141344cd1fd0a4f28419497f9722a3daafe3b4186f6b6457e060405160405180910390a35050565b620002e181604051602401620002589190620008b2565b6040516020818303038152906040527f41304fac000000000000000000000000000000000000000000000000000000007bffffffffffffffffffffffffffffffffffffffffffffffffffffffff19166020820180517bffffffffffffffffffffffffffffffffffffffffffffffffffffffff8381831617835250505050620004cb60201b60201c565b50565b6001816000016000828254019250508190555050565b60606000825190506000811415620003255760405180602001604052806000815250915050620004c6565b600060036002836200033891906200095c565b620003449190620009b9565b6004620003529190620009f1565b905060006020826200036591906200095c565b67ffffffffffffffff811115620003a5577f4e487b7100000000000000000000000000000000000000000000000000000000600052604160045260246000fd5b6040519080825280601f01601f191660200182016040528015620003d85781602001600182028036833780820191505090505b5090506000604051806060016040528060408152602001620044be604091399050600181016020830160005b868110156200047f5760038101905062ffffff818a015116603f8160121c168401518060081b905060ff603f83600c1c1686015116810190508060081b905060ff603f8360061c1686015116810190508060081b905060ff603f831686015116810190508060e01b9050808452600484019350505062000404565b5060038606600181146200049c5760028114620004ad57620004b8565b613d3d60f01b6002830352620004b8565b603d60f81b60018303525b508484525050819450505050505b919050565b60008151905060006a636f6e736f6c652e6c6f679050602083016000808483855afa5050505050565b828054620005029062000a92565b90600052602060002090601f01602090048101928262000526576000855562000572565b82601f106200054157805160ff191683800117855562000572565b8280016001018555821562000572579182015b828111156200057157825182559160200191906001019062000554565b5b50905062000581919062000585565b5090565b5b80821115620005a057600081600090555060010162000586565b5090565b6000620005bb620005b584620008ff565b620008d6565b905082815260208101848484011115620005d457600080fd5b620005e184828562000a5c565b509392505050565b600082601f830112620005fb57600080fd5b81516200060d848260208601620005a4565b91505092915050565b600080600080608085870312156200062d57600080fd5b600085015167ffffffffffffffff8111156200064857600080fd5b6200065687828801620005e9565b945050602085015167ffffffffffffffff8111156200067457600080fd5b6200068287828801620005e9565b935050604085015167ffffffffffffffff811115620006a057600080fd5b620006ae87828801620005e9565b925050606085015167ffffffffffffffff811115620006cc57600080fd5b620006da87828801620005e9565b91505092959194509250565b6000620006f38262000935565b620006ff818562000940565b93506200071181856020860162000a5c565b6200071c8162000bba565b840191505092915050565b6000620007348262000935565b62000740818562000951565b93506200075281856020860162000a5c565b80840191505092915050565b60006200076d60128362000951565b91506200077a8262000bcb565b601282019050919050565b60006200079460028362000951565b9150620007a18262000bf4565b600282019050919050565b6000620007bb600a8362000951565b9150620007c88262000c1d565b600a82019050919050565b6000620007e2601d8362000951565b9150620007ef8262000c46565b601d82019050919050565b600062000809600c8362000951565b9150620008168262000c6f565b600c82019050919050565b60006200082e82620007ac565b91506200083c828662000727565b915062000849826200075e565b915062000857828562000727565b91506200086482620007fa565b915062000872828462000727565b91506200087f8262000785565b9150819050949350505050565b60006200089982620007d3565b9150620008a7828462000727565b915081905092915050565b60006020820190508181036000830152620008ce8184620006e6565b905092915050565b6000620008e2620008f5565b9050620008f0828262000ac8565b919050565b6000604051905090565b600067ffffffffffffffff8211156200091d576200091c62000b8b565b5b620009288262000bba565b9050602081019050919050565b600081519050919050565b600082825260208201905092915050565b600081905092915050565b6000620009698262000a52565b9150620009768362000a52565b9250827fffffffffffffffffffffffffffffffffffffffffffffffffffffffffffffffff03821115620009ae57620009ad62000afe565b5b828201905092915050565b6000620009c68262000a52565b9150620009d38362000a52565b925082620009e657620009e562000b2d565b5b828204905092915050565b6000620009fe8262000a52565b915062000a0b8362000a52565b9250817fffffffffffffffffffffffffffffffffffffffffffffffffffffffffffffffff048311821515161562000a475762000a4662000afe565b5b828202905092915050565b6000819050919050565b60005b8381101562000a7c57808201518184015260208101905062000a5f565b8381111562000a8c576000848401525b50505050565b6000600282049050600182168062000aab57607f821691505b6020821081141562000ac25762000ac162000b5c565b5b50919050565b62000ad38262000bba565b810181811067ffffffffffffffff8211171562000af55762000af462000b8b565b5b80604052505050565b7f4e487b7100000000000000000000000000000000000000000000000000000000600052601160045260246000fd5b7f4e487b7100000000000000000000000000000000000000000000000000000000600052601260045260246000fd5b7f4e487b7100000000000000000000000000000000000000000000000000000000600052602260045260246000fd5b7f4e487b7100000000000000000000000000000000000000000000000000000000600052604160045260246000fd5b6000601f19601f8301169050919050565b7f222c226465736372697074696f6e223a20220000000000000000000000000000600082015250565b7f227d000000000000000000000000000000000000000000000000000000000000600082015250565b7f7b226e616d65223a202200000000000000000000000000000000000000000000600082015250565b7f646174613a6170706c69636174696f6e2f6a736f6e3b6261736536342c000000600082015250565b7f222c22696d616765223a20220000000000000000000000000000000000000000600082015250565b6138168062000ca86000396000f3fe608060405234801561001057600080fd5b506004361061014d5760003560e01c8063715018a6116100c3578063b88d4fde1161007c578063b88d4fde1461032c578063c0d2d05714610348578063c87b56dd14610378578063d07b77b5146103a8578063e985e9c5146103b2578063f2fde38b146103e25761014d565b8063715018a6146102a2578063811c34d3146102ac5780638da5cb5b146102b657806395d89b41146102d457806395dc3b3c146102f2578063a22cb465146103105761014d565b806323b872dd1161011557806323b872dd146101f6578063332f31dd1461021257806342842e0e1461021c578063445cfe12146102385780636352211e1461024257806370a08231146102725761014d565b806301ffc9a71461015257806306fdde0314610182578063081812fc146101a0578063095ea7b3146101d057806312424e3f146101ec575b600080fd5b61016c600480360381019061016791906125f8565b6103fe565b6040516101799190612ab3565b60405180910390f35b61018a6104e0565b6040516101979190612ace565b60405180910390f35b6101ba60048036038101906101b5919061264a565b610572565b6040516101c79190612a23565b60405180910390f35b6101ea60048036038101906101e591906125bc565b6105f7565b005b6101f461070f565b005b610210600480360381019061020b91906124b6565b61074a565b005b61021a6107aa565b005b610236600480360381019061023191906124b6565b610a0a565b005b610240610a2a565b005b61025c6004803603810190610257919061264a565b610a65565b6040516102699190612a23565b60405180910390f35b61028c60048036038101906102879190612451565b610b17565b6040516102999190612dae565b60405180910390f35b6102aa610bcf565b005b6102b4610c57565b005b6102be610c92565b6040516102cb9190612a23565b60405180910390f35b6102dc610cbc565b6040516102e99190612ace565b60405180910390f35b6102fa610d4e565b6040516103079190612dae565b60405180910390f35b61032a60048036038101906103259190612580565b610d5f565b005b61034660048036038101906103419190612505565b610d75565b005b610362600480360381019061035d9190612451565b610dd7565b60405161036f9190612dae565b60405180910390f35b610392600480360381019061038d919061264a565b610e20565b60405161039f9190612ace565b60405180910390f35b6103b0610f72565b005b6103cc60048036038101906103c7919061247a565b610fad565b6040516103d99190612ab3565b60405180910390f35b6103fc60048036038101906103f79190612451565b611041565b005b60007f80ac58cd000000000000000000000000000000000000000000000000000000007bffffffffffffffffffffffffffffffffffffffffffffffffffffffff1916827bffffffffffffffffffffffffffffffffffffffffffffffffffffffff191614806104c957507f5b5e139f000000000000000000000000000000000000000000000000000000007bffffffffffffffffffffffffffffffffffffffffffffffffffffffff1916827bffffffffffffffffffffffffffffffffffffffffffffffffffffffff1916145b806104d957506104d8826113a6565b5b9050919050565b6060600080546104ef9061302d565b80601f016020809104026020016040519081016040528092919081815260200182805461051b9061302d565b80156105685780601f1061053d57610100808354040283529160200191610568565b820191906000526020600020905b81548152906001019060200180831161054b57829003601f168201915b5050505050905090565b600061057d82611410565b6105bc576040517f08c379a00000000000000000000000000000000000000000000000000000000081526004016105b390612d0e565b60405180910390fd5b6004600083815260200190815260200160002060009054906101000a900473ffffffffffffffffffffffffffffffffffffffff169050919050565b600061060282610a65565b90508073ffffffffffffffffffffffffffffffffffffffff168373ffffffffffffffffffffffffffffffffffffffff161415610673576040517f08c379a000000000000000000000000000000000000000000000000000000000815260040161066a90612d6e565b60405180910390fd5b8073ffffffffffffffffffffffffffffffffffffffff1661069261147c565b73ffffffffffffffffffffffffffffffffffffffff1614806106c157506106c0816106bb61147c565b610fad565b5b610700576040517f08c379a00000000000000000000000000000000000000000000000000000000081526004016106f790612c2e565b60405180910390fd5b61070a8383611484565b505050565b6040517f08c379a000000000000000000000000000000000000000000000000000000000815260040161074190612b2e565b60405180910390fd5b61075b61075561147c565b8261153d565b61079a576040517f08c379a000000000000000000000000000000000000000000000000000000000815260040161079190612d8e565b60405180910390fd5b6107a583838361161b565b505050565b6107b261147c565b73ffffffffffffffffffffffffffffffffffffffff166107d0610c92565b73ffffffffffffffffffffffffffffffffffffffff1614610826576040517f08c379a000000000000000000000000000000000000000000000000000000000815260040161081d90612d2e565b60405180910390fd5b6000600a60003273ffffffffffffffffffffffffffffffffffffffff1673ffffffffffffffffffffffffffffffffffffffff16815260200190815260200160002054146108a8576040517f08c379a000000000000000000000000000000000000000000000000000000000815260040161089f90612cae565b60405180910390fd5b60006108b46008611882565b90506108c03282611890565b6108ca6008611882565b600a60003273ffffffffffffffffffffffffffffffffffffffff1673ffffffffffffffffffffffffffffffffffffffff168152602001908152602001600020819055506109a1816009805461091e9061302d565b80601f016020809104026020016040519081016040528092919081815260200182805461094a9061302d565b80156109975780601f1061096c57610100808354040283529160200191610997565b820191906000526020600020905b81548152906001019060200180831161097a57829003601f168201915b50505050506118ae565b6109c460405180606001604052806025815260200161377c602591398232611922565b6109ce60086111d2565b7ffbd3930499eb94990a1993baa270e2320080fa9f0507c3f1c0ff5178bec535b332826040516109ff929190612a8a565b60405180910390a150565b610a2583838360405180602001604052806000815250610d75565b505050565b6040517f08c379a0000000000000000000000000000000000000000000000000000000008152600401610a5c90612b2e565b60405180910390fd5b6000806002600084815260200190815260200160002060009054906101000a900473ffffffffffffffffffffffffffffffffffffffff169050600073ffffffffffffffffffffffffffffffffffffffff168173ffffffffffffffffffffffffffffffffffffffff161415610b0e576040517f08c379a0000000000000000000000000000000000000000000000000000000008152600401610b0590612c6e565b60405180910390fd5b80915050919050565b60008073ffffffffffffffffffffffffffffffffffffffff168273ffffffffffffffffffffffffffffffffffffffff161415610b88576040517f08c379a0000000000000000000000000000000000000000000000000000000008152600401610b7f90612c4e565b60405180910390fd5b600360008373ffffffffffffffffffffffffffffffffffffffff1673ffffffffffffffffffffffffffffffffffffffff168152602001908152602001600020549050919050565b610bd761147c565b73ffffffffffffffffffffffffffffffffffffffff16610bf5610c92565b73ffffffffffffffffffffffffffffffffffffffff1614610c4b576040517f08c379a0000000000000000000000000000000000000000000000000000000008152600401610c4290612d2e565b60405180910390fd5b610c5560006119c1565b565b6040517f08c379a0000000000000000000000000000000000000000000000000000000008152600401610c8990612b2e565b60405180910390fd5b6000600760009054906101000a900473ffffffffffffffffffffffffffffffffffffffff16905090565b606060018054610ccb9061302d565b80601f0160208091040260200160405190810160405280929190818152602001828054610cf79061302d565b8015610d445780601f10610d1957610100808354040283529160200191610d44565b820191906000526020600020905b815481529060010190602001808311610d2757829003601f168201915b5050505050905090565b6000610d5a6008611882565b905090565b610d71610d6a61147c565b8383611a87565b5050565b610d86610d8061147c565b8361153d565b610dc5576040517f08c379a0000000000000000000000000000000000000000000000000000000008152600401610dbc90612d8e565b60405180910390fd5b610dd184848484611bf4565b50505050565b6000600a60008373ffffffffffffffffffffffffffffffffffffffff1673ffffffffffffffffffffffffffffffffffffffff168152602001908152602001600020549050919050565b6060610e2b82611410565b610e6a576040517f08c379a0000000000000000000000000000000000000000000000000000000008152600401610e6190612cee565b60405180910390fd5b6000600660008481526020019081526020016000208054610e8a9061302d565b80601f0160208091040260200160405190810160405280929190818152602001828054610eb69061302d565b8015610f035780601f10610ed857610100808354040283529160200191610f03565b820191906000526020600020905b815481529060010190602001808311610ee657829003601f168201915b505050505090506000610f14611c50565b9050600081511415610f2a578192505050610f6d565b600082511115610f5f578082604051602001610f479291906129ff565b60405160208183030381529060405292505050610f6d565b610f6884611c67565b925050505b919050565b6040517f08c379a0000000000000000000000000000000000000000000000000000000008152600401610fa490612b2e565b60405180910390fd5b6000600560008473ffffffffffffffffffffffffffffffffffffffff1673ffffffffffffffffffffffffffffffffffffffff16815260200190815260200160002060008373ffffffffffffffffffffffffffffffffffffffff1673ffffffffffffffffffffffffffffffffffffffff16815260200190815260200160002060009054906101000a900460ff16905092915050565b61104961147c565b73ffffffffffffffffffffffffffffffffffffffff16611067610c92565b73ffffffffffffffffffffffffffffffffffffffff16146110bd576040517f08c379a00000000000000000000000000000000000000000000000000000000081526004016110b490612d2e565b60405180910390fd5b600073ffffffffffffffffffffffffffffffffffffffff168173ffffffffffffffffffffffffffffffffffffffff16141561112d576040517f08c379a000000000000000000000000000000000000000000000000000000000815260040161112490612b6e565b60405180910390fd5b611136816119c1565b50565b6111cf8160405160240161114d9190612ace565b6040516020818303038152906040527f41304fac000000000000000000000000000000000000000000000000000000007bffffffffffffffffffffffffffffffffffffffffffffffffffffffff19166020820180517bffffffffffffffffffffffffffffffffffffffffffffffffffffffff8381831617835250505050611d0e565b50565b6001816000016000828254019250508190555050565b6060600082519050600081141561121157604051806020016040528060008152509150506113a1565b600060036002836112229190612e62565b61122c9190612eb8565b60046112389190612ee9565b905060006020826112499190612e62565b67ffffffffffffffff811115611288577f4e487b7100000000000000000000000000000000000000000000000000000000600052604160045260246000fd5b6040519080825280601f01601f1916602001820160405280156112ba5781602001600182028036833780820191505090505b50905060006040518060600160405280604081526020016137a1604091399050600181016020830160005b8681101561135e5760038101905062ffffff818a015116603f8160121c168401518060081b905060ff603f83600c1c1686015116810190508060081b905060ff603f8360061c1686015116810190508060081b905060ff603f831686015116810190508060e01b905080845260048401935050506112e5565b506003860660018114611378576002811461138857611393565b613d3d60f01b6002830352611393565b603d60f81b60018303525b508484525050819450505050505b919050565b60007f01ffc9a7000000000000000000000000000000000000000000000000000000007bffffffffffffffffffffffffffffffffffffffffffffffffffffffff1916827bffffffffffffffffffffffffffffffffffffffffffffffffffffffff1916149050919050565b60008073ffffffffffffffffffffffffffffffffffffffff166002600084815260200190815260200160002060009054906101000a900473ffffffffffffffffffffffffffffffffffffffff1673ffffffffffffffffffffffffffffffffffffffff1614159050919050565b600033905090565b816004600083815260200190815260200160002060006101000a81548173ffffffffffffffffffffffffffffffffffffffff021916908373ffffffffffffffffffffffffffffffffffffffff160217905550808273ffffffffffffffffffffffffffffffffffffffff166114f783610a65565b73ffffffffffffffffffffffffffffffffffffffff167f8c5be1e5ebec7d5bd14f71427d1e84f3dd0314c0f7b2291e5b200ac8c7c3b92560405160405180910390a45050565b600061154882611410565b611587576040517f08c379a000000000000000000000000000000000000000000000000000000000815260040161157e90612c0e565b60405180910390fd5b600061159283610a65565b90508073ffffffffffffffffffffffffffffffffffffffff168473ffffffffffffffffffffffffffffffffffffffff1614806115d457506115d38185610fad565b5b8061161257508373ffffffffffffffffffffffffffffffffffffffff166115fa84610572565b73ffffffffffffffffffffffffffffffffffffffff16145b91505092915050565b8273ffffffffffffffffffffffffffffffffffffffff1661163b82610a65565b73ffffffffffffffffffffffffffffffffffffffff1614611691576040517f08c379a000000000000000000000000000000000000000000000000000000000815260040161168890612b8e565b60405180910390fd5b600073ffffffffffffffffffffffffffffffffffffffff168273ffffffffffffffffffffffffffffffffffffffff161415611701576040517f08c379a00000000000000000000000000000000000000000000000000000000081526004016116f890612bce565b60405180910390fd5b61170c838383611d37565b611717600082611484565b6001600360008573ffffffffffffffffffffffffffffffffffffffff1673ffffffffffffffffffffffffffffffffffffffff16815260200190815260200160002060008282546117679190612f43565b925050819055506001600360008473ffffffffffffffffffffffffffffffffffffffff1673ffffffffffffffffffffffffffffffffffffffff16815260200190815260200160002060008282546117be9190612e62565b92505081905550816002600083815260200190815260200160002060006101000a81548173ffffffffffffffffffffffffffffffffffffffff021916908373ffffffffffffffffffffffffffffffffffffffff160217905550808273ffffffffffffffffffffffffffffffffffffffff168473ffffffffffffffffffffffffffffffffffffffff167fddf252ad1be2c89b69c2b068fc378daa952ba7f163c4a11628f55a4df523b3ef60405160405180910390a461187d838383611d3c565b505050565b600081600001549050919050565b6118aa828260405180602001604052806000815250611d41565b5050565b6118b782611410565b6118f6576040517f08c379a00000000000000000000000000000000000000000000000000000000081526004016118ed90612c8e565b60405180910390fd5b8060066000848152602001908152602001600020908051906020019061191d9291906122dd565b505050565b6119bc83838360405160240161193a93929190612af0565b6040516020818303038152906040527fe3849f79000000000000000000000000000000000000000000000000000000007bffffffffffffffffffffffffffffffffffffffffffffffffffffffff19166020820180517bffffffffffffffffffffffffffffffffffffffffffffffffffffffff8381831617835250505050611d0e565b505050565b6000600760009054906101000a900473ffffffffffffffffffffffffffffffffffffffff16905081600760006101000a81548173ffffffffffffffffffffffffffffffffffffffff021916908373ffffffffffffffffffffffffffffffffffffffff1602179055508173ffffffffffffffffffffffffffffffffffffffff168173ffffffffffffffffffffffffffffffffffffffff167f8be0079c531659141344cd1fd0a4f28419497f9722a3daafe3b4186f6b6457e060405160405180910390a35050565b8173ffffffffffffffffffffffffffffffffffffffff168373ffffffffffffffffffffffffffffffffffffffff161415611af6576040517f08c379a0000000000000000000000000000000000000000000000000000000008152600401611aed90612bee565b60405180910390fd5b80600560008573ffffffffffffffffffffffffffffffffffffffff1673ffffffffffffffffffffffffffffffffffffffff16815260200190815260200160002060008473ffffffffffffffffffffffffffffffffffffffff1673ffffffffffffffffffffffffffffffffffffffff16815260200190815260200160002060006101000a81548160ff0219169083151502179055508173ffffffffffffffffffffffffffffffffffffffff168373ffffffffffffffffffffffffffffffffffffffff167f17307eab39ab6107e8899845ad3d59bd9653f200f220920489ca2b5937696c3183604051611be79190612ab3565b60405180910390a3505050565b611bff84848461161b565b611c0b84848484611d9c565b611c4a576040517f08c379a0000000000000000000000000000000000000000000000000000000008152600401611c4190612b4e565b60405180910390fd5b50505050565b606060405180602001604052806000815250905090565b6060611c7282611410565b611cb1576040517f08c379a0000000000000000000000000000000000000000000000000000000008152600401611ca890612d4e565b60405180910390fd5b6000611cbb611c50565b90506000815111611cdb5760405180602001604052806000815250611d06565b80611ce584611f33565b604051602001611cf69291906129ff565b6040516020818303038152906040525b915050919050565b60008151905060006a636f6e736f6c652e6c6f679050602083016000808483855afa5050505050565b505050565b505050565b611d4b83836120e0565b611d586000848484611d9c565b611d97576040517f08c379a0000000000000000000000000000000000000000000000000000000008152600401611d8e90612b4e565b60405180910390fd5b505050565b6000611dbd8473ffffffffffffffffffffffffffffffffffffffff166122ba565b15611f26578373ffffffffffffffffffffffffffffffffffffffff1663150b7a02611de661147c565b8786866040518563ffffffff1660e01b8152600401611e089493929190612a3e565b602060405180830381600087803b158015611e2257600080fd5b505af1925050508015611e5357506040513d601f19601f82011682018060405250810190611e509190612621565b60015b611ed6573d8060008114611e83576040519150601f19603f3d011682016040523d82523d6000602084013e611e88565b606091505b50600081511415611ece576040517f08c379a0000000000000000000000000000000000000000000000000000000008152600401611ec590612b4e565b60405180910390fd5b805181602001fd5b63150b7a0260e01b7bffffffffffffffffffffffffffffffffffffffffffffffffffffffff1916817bffffffffffffffffffffffffffffffffffffffffffffffffffffffff191614915050611f2b565b600190505b949350505050565b60606000821415611f7b576040518060400160405280600181526020017f300000000000000000000000000000000000000000000000000000000000000081525090506120db565b600082905060005b60008214611fad578080611f9690613090565b915050600a82611fa69190612eb8565b9150611f83565b60008167ffffffffffffffff811115611fef577f4e487b7100000000000000000000000000000000000000000000000000000000600052604160045260246000fd5b6040519080825280601f01601f1916602001820160405280156120215781602001600182028036833780820191505090505b5090505b600085146120d45760018261203a9190612f43565b9150600a8561204991906130d9565b60306120559190612e62565b60f81b818381518110612091577f4e487b7100000000000000000000000000000000000000000000000000000000600052603260045260246000fd5b60200101907effffffffffffffffffffffffffffffffffffffffffffffffffffffffffffff1916908160001a905350600a856120cd9190612eb8565b9450612025565b8093505050505b919050565b600073ffffffffffffffffffffffffffffffffffffffff168273ffffffffffffffffffffffffffffffffffffffff161415612150576040517f08c379a000000000000000000000000000000000000000000000000000000000815260040161214790612cce565b60405180910390fd5b61215981611410565b15612199576040517f08c379a000000000000000000000000000000000000000000000000000000000815260040161219090612bae565b60405180910390fd5b6121a560008383611d37565b6001600360008473ffffffffffffffffffffffffffffffffffffffff1673ffffffffffffffffffffffffffffffffffffffff16815260200190815260200160002060008282546121f59190612e62565b92505081905550816002600083815260200190815260200160002060006101000a81548173ffffffffffffffffffffffffffffffffffffffff021916908373ffffffffffffffffffffffffffffffffffffffff160217905550808273ffffffffffffffffffffffffffffffffffffffff16600073ffffffffffffffffffffffffffffffffffffffff167fddf252ad1be2c89b69c2b068fc378daa952ba7f163c4a11628f55a4df523b3ef60405160405180910390a46122b660008383611d3c565b5050565b6000808273ffffffffffffffffffffffffffffffffffffffff163b119050919050565b8280546122e99061302d565b90600052602060002090601f01602090048101928261230b5760008555612352565b82601f1061232457805160ff1916838001178555612352565b82800160010185558215612352579182015b82811115612351578251825591602001919060010190612336565b5b50905061235f9190612363565b5090565b5b8082111561237c576000816000905550600101612364565b5090565b600061239361238e84612dee565b612dc9565b9050828152602081018484840111156123ab57600080fd5b6123b6848285612feb565b509392505050565b6000813590506123cd8161371f565b92915050565b6000813590506123e281613736565b92915050565b6000813590506123f78161374d565b92915050565b60008151905061240c8161374d565b92915050565b600082601f83011261242357600080fd5b8135612433848260208601612380565b91505092915050565b60008135905061244b81613764565b92915050565b60006020828403121561246357600080fd5b6000612471848285016123be565b91505092915050565b6000806040838503121561248d57600080fd5b600061249b858286016123be565b92505060206124ac858286016123be565b9150509250929050565b6000806000606084860312156124cb57600080fd5b60006124d9868287016123be565b93505060206124ea868287016123be565b92505060406124fb8682870161243c565b9150509250925092565b6000806000806080858703121561251b57600080fd5b6000612529878288016123be565b945050602061253a878288016123be565b935050604061254b8782880161243c565b925050606085013567ffffffffffffffff81111561256857600080fd5b61257487828801612412565b91505092959194509250565b6000806040838503121561259357600080fd5b60006125a1858286016123be565b92505060206125b2858286016123d3565b9150509250929050565b600080604083850312156125cf57600080fd5b60006125dd858286016123be565b92505060206125ee8582860161243c565b9150509250929050565b60006020828403121561260a57600080fd5b6000612618848285016123e8565b91505092915050565b60006020828403121561263357600080fd5b6000612641848285016123fd565b91505092915050565b60006020828403121561265c57600080fd5b600061266a8482850161243c565b91505092915050565b61267c81612f77565b82525050565b61268b81612f89565b82525050565b600061269c82612e1f565b6126a68185612e35565b93506126b6818560208601612ffa565b6126bf816131c6565b840191505092915050565b60006126d582612e2a565b6126df8185612e46565b93506126ef818560208601612ffa565b6126f8816131c6565b840191505092915050565b600061270e82612e2a565b6127188185612e57565b9350612728818560208601612ffa565b80840191505092915050565b6000612741601e83612e46565b915061274c826131d7565b602082019050919050565b6000612764603283612e46565b915061276f82613200565b604082019050919050565b6000612787602683612e46565b91506127928261324f565b604082019050919050565b60006127aa602583612e46565b91506127b58261329e565b604082019050919050565b60006127cd601c83612e46565b91506127d8826132ed565b602082019050919050565b60006127f0602483612e46565b91506127fb82613316565b604082019050919050565b6000612813601983612e46565b915061281e82613365565b602082019050919050565b6000612836602c83612e46565b91506128418261338e565b604082019050919050565b6000612859603883612e46565b9150612864826133dd565b604082019050919050565b600061287c602a83612e46565b91506128878261342c565b604082019050919050565b600061289f602983612e46565b91506128aa8261347b565b604082019050919050565b60006128c2602e83612e46565b91506128cd826134ca565b604082019050919050565b60006128e5602083612e46565b91506128f082613519565b602082019050919050565b6000612908602083612e46565b915061291382613542565b602082019050919050565b600061292b603183612e46565b91506129368261356b565b604082019050919050565b600061294e602c83612e46565b9150612959826135ba565b604082019050919050565b6000612971602083612e46565b915061297c82613609565b602082019050919050565b6000612994602f83612e46565b915061299f82613632565b604082019050919050565b60006129b7602183612e46565b91506129c282613681565b604082019050919050565b60006129da603183612e46565b91506129e5826136d0565b604082019050919050565b6129f981612fe1565b82525050565b6000612a0b8285612703565b9150612a178284612703565b91508190509392505050565b6000602082019050612a386000830184612673565b92915050565b6000608082019050612a536000830187612673565b612a606020830186612673565b612a6d60408301856129f0565b8181036060830152612a7f8184612691565b905095945050505050565b6000604082019050612a9f6000830185612673565b612aac60208301846129f0565b9392505050565b6000602082019050612ac86000830184612682565b92915050565b60006020820190508181036000830152612ae881846126ca565b905092915050565b60006060820190508181036000830152612b0a81866126ca565b9050612b1960208301856129f0565b612b266040830184612673565b949350505050565b60006020820190508181036000830152612b4781612734565b9050919050565b60006020820190508181036000830152612b6781612757565b9050919050565b60006020820190508181036000830152612b878161277a565b9050919050565b60006020820190508181036000830152612ba78161279d565b9050919050565b60006020820190508181036000830152612bc7816127c0565b9050919050565b60006020820190508181036000830152612be7816127e3565b9050919050565b60006020820190508181036000830152612c0781612806565b9050919050565b60006020820190508181036000830152612c2781612829565b9050919050565b60006020820190508181036000830152612c478161284c565b9050919050565b60006020820190508181036000830152612c678161286f565b9050919050565b60006020820190508181036000830152612c8781612892565b9050919050565b60006020820190508181036000830152612ca7816128b5565b9050919050565b60006020820190508181036000830152612cc7816128d8565b9050919050565b60006020820190508181036000830152612ce7816128fb565b9050919050565b60006020820190508181036000830152612d078161291e565b9050919050565b60006020820190508181036000830152612d2781612941565b9050919050565b60006020820190508181036000830152612d4781612964565b9050919050565b60006020820190508181036000830152612d6781612987565b9050919050565b60006020820190508181036000830152612d87816129aa565b9050919050565b60006020820190508181036000830152612da7816129cd565b9050919050565b6000602082019050612dc360008301846129f0565b92915050565b6000612dd3612de4565b9050612ddf828261305f565b919050565b6000604051905090565b600067ffffffffffffffff821115612e0957612e08613197565b5b612e12826131c6565b9050602081019050919050565b600081519050919050565b600081519050919050565b600082825260208201905092915050565b600082825260208201905092915050565b600081905092915050565b6000612e6d82612fe1565b9150612e7883612fe1565b9250827fffffffffffffffffffffffffffffffffffffffffffffffffffffffffffffffff03821115612ead57612eac61310a565b5b828201905092915050565b6000612ec382612fe1565b9150612ece83612fe1565b925082612ede57612edd613139565b5b828204905092915050565b6000612ef482612fe1565b9150612eff83612fe1565b9250817fffffffffffffffffffffffffffffffffffffffffffffffffffffffffffffffff0483118215151615612f3857612f3761310a565b5b828202905092915050565b6000612f4e82612fe1565b9150612f5983612fe1565b925082821015612f6c57612f6b61310a565b5b828203905092915050565b6000612f8282612fc1565b9050919050565b60008115159050919050565b60007fffffffff0000000000000000000000000000000000000000000000000000000082169050919050565b600073ffffffffffffffffffffffffffffffffffffffff82169050919050565b6000819050919050565b82818337600083830152505050565b60005b83811015613018578082015181840152602081019050612ffd565b83811115613027576000848401525b50505050565b6000600282049050600182168061304557607f821691505b6020821081141561305957613058613168565b5b50919050565b613068826131c6565b810181811067ffffffffffffffff8211171561308757613086613197565b5b80604052505050565b600061309b82612fe1565b91507fffffffffffffffffffffffffffffffffffffffffffffffffffffffffffffffff8214156130ce576130cd61310a565b5b600182019050919050565b60006130e482612fe1565b91506130ef83612fe1565b9250826130ff576130fe613139565b5b828206905092915050565b7f4e487b7100000000000000000000000000000000000000000000000000000000600052601160045260246000fd5b7f4e487b7100000000000000000000000000000000000000000000000000000000600052601260045260246000fd5b7f4e487b7100000000000000000000000000000000000000000000000000000000600052602260045260246000fd5b7f4e487b7100000000000000000000000000000000000000000000000000000000600052604160045260246000fd5b6000601f19601f8301169050919050565b7f5468697320746f6b656e206973206e6f74207472616e7366657261626c650000600082015250565b7f4552433732313a207472616e7366657220746f206e6f6e20455243373231526560008201527f63656976657220696d706c656d656e7465720000000000000000000000000000602082015250565b7f4f776e61626c653a206e6577206f776e657220697320746865207a65726f206160008201527f6464726573730000000000000000000000000000000000000000000000000000602082015250565b7f4552433732313a207472616e736665722066726f6d20696e636f72726563742060008201527f6f776e6572000000000000000000000000000000000000000000000000000000602082015250565b7f4552433732313a20746f6b656e20616c7265616479206d696e74656400000000600082015250565b7f4552433732313a207472616e7366657220746f20746865207a65726f2061646460008201527f7265737300000000000000000000000000000000000000000000000000000000602082015250565b7f4552433732313a20617070726f766520746f2063616c6c657200000000000000600082015250565b7f4552433732313a206f70657261746f7220717565727920666f72206e6f6e657860008201527f697374656e7420746f6b656e0000000000000000000000000000000000000000602082015250565b7f4552433732313a20617070726f76652063616c6c6572206973206e6f74206f7760008201527f6e6572206e6f7220617070726f76656420666f7220616c6c0000000000000000602082015250565b7f4552433732313a2062616c616e636520717565727920666f7220746865207a6560008201527f726f206164647265737300000000000000000000000000000000000000000000602082015250565b7f4552433732313a206f776e657220717565727920666f72206e6f6e657869737460008201527f656e7420746f6b656e0000000000000000000000000000000000000000000000602082015250565b7f45524337323155524953746f726167653a2055524920736574206f66206e6f6e60008201527f6578697374656e7420746f6b656e000000000000000000000000000000000000602082015250565b7f54686973206164647265737320616c726561647920686173206120746f6b656e600082015250565b7f4552433732313a206d696e7420746f20746865207a65726f2061646472657373600082015250565b7f45524337323155524953746f726167653a2055524920717565727920666f722060008201527f6e6f6e6578697374656e7420746f6b656e000000000000000000000000000000602082015250565b7f4552433732313a20617070726f76656420717565727920666f72206e6f6e657860008201527f697374656e7420746f6b656e0000000000000000000000000000000000000000602082015250565b7f4f776e61626c653a2063616c6c6572206973206e6f7420746865206f776e6572600082015250565b7f4552433732314d657461646174613a2055524920717565727920666f72206e6f60008201527f6e6578697374656e7420746f6b656e0000000000000000000000000000000000602082015250565b7f4552433732313a20617070726f76616c20746f2063757272656e74206f776e6560008201527f7200000000000000000000000000000000000000000000000000000000000000602082015250565b7f4552433732313a207472616e736665722063616c6c6572206973206e6f74206f60008201527f776e6572206e6f7220617070726f766564000000000000000000000000000000602082015250565b61372881612f77565b811461373357600080fd5b50565b61373f81612f89565b811461374a57600080fd5b50565b61375681612f95565b811461376157600080fd5b50565b61376d81612fe1565b811461377857600080fd5b5056fe416e204e465420772f20494420257320686173206265656e206d696e74656420746f2025734142434445464748494a4b4c4d4e4f505152535455565758595a6162636465666768696a6b6c6d6e6f707172737475767778797a303132333435363738392b2fa2646970667358221220e4ba3ede2699c94003697639f6de5c50a5b6bd2933fa32ad896c6d57fc0a8ed464736f6c634300080400334142434445464748494a4b4c4d4e4f505152535455565758595a6162636465666768696a6b6c6d6e6f707172737475767778797a303132333435363738392b2fa2646970667358221220e8afebf1ac28a01138131a222249564a90f791a4d7960f09f3c1896180d501f464736f6c6343000804003360806040523480156200001157600080fd5b506040518060400160405280601181526020017f42616467652043726561746f72204e46540000000000000000000000000000008152506040518060400160405280600381526020017f50434e0000000000000000000000000000000000000000000000000000000000815250816000908051906020019062000096929190620002bd565b508060019080519060200190620000af929190620002bd565b505050620000d2620000c66200012360201b60201c565b6200012b60201b60201c565b6200011d6040518060400160405280601981526020017f696e697469616c697a696e67204e465420436f6e747261637400000000000000815250620001f160201b620011c31760201c565b6200049a565b600033905090565b6000600760009054906101000a900473ffffffffffffffffffffffffffffffffffffffff16905081600760006101000a81548173ffffffffffffffffffffffffffffffffffffffff021916908373ffffffffffffffffffffffffffffffffffffffff1602179055508173ffffffffffffffffffffffffffffffffffffffff168173ffffffffffffffffffffffffffffffffffffffff167f8be0079c531659141344cd1fd0a4f28419497f9722a3daafe3b4186f6b6457e060405160405180910390a35050565b6200029181604051602401620002089190620003ae565b6040516020818303038152906040527f41304fac000000000000000000000000000000000000000000000000000000007bffffffffffffffffffffffffffffffffffffffffffffffffffffffff19166020820180517bffffffffffffffffffffffffffffffffffffffffffffffffffffffff83818316178352505050506200029460201b60201c565b50565b60008151905060006a636f6e736f6c652e6c6f679050602083016000808483855afa5050505050565b828054620002cb9062000424565b90600052602060002090601f016020900481019282620002ef57600085556200033b565b82601f106200030a57805160ff19168380011785556200033b565b828001600101855582156200033b579182015b828111156200033a5782518255916020019190600101906200031d565b5b5090506200034a91906200034e565b5090565b5b80821115620003695760008160009055506001016200034f565b5090565b60006200037a82620003d2565b620003868185620003dd565b935062000398818560208601620003ee565b620003a38162000489565b840191505092915050565b60006020820190508181036000830152620003ca81846200036d565b905092915050565b600081519050919050565b600082825260208201905092915050565b60005b838110156200040e578082015181840152602081019050620003f1565b838111156200041e576000848401525b50505050565b600060028204905060018216806200043d57607f821691505b602082108114156200045457620004536200045a565b5b50919050565b7f4e487b7100000000000000000000000000000000000000000000000000000000600052602260045260246000fd5b6000601f19601f8301169050919050565b613cdd80620004aa6000396000f3fe608060405234801561001057600080fd5b50600436106101215760003560e01c8063715018a6116100ad578063b88d4fde11610071578063b88d4fde1461031a578063c87b56dd14610336578063e60a955d14610366578063e985e9c514610382578063f2fde38b146103b257610121565b8063715018a6146102885780638033d581146102925780638da5cb5b146102c257806395d89b41146102e0578063a22cb465146102fe57610121565b806323b872dd116100f457806323b872dd146101c057806342842e0e146101dc578063634a22fa146101f85780636352211e1461022857806370a082311461025857610121565b806301ffc9a71461012657806306fdde0314610156578063081812fc14610174578063095ea7b3146101a4575b600080fd5b610140600480360381019061013b91906126c6565b6103ce565b60405161014d9190612dde565b60405180910390f35b61015e6104b0565b60405161016b9190612df9565b60405180910390f35b61018e600480360381019061018991906127af565b610542565b60405161019b9190612d4e565b60405180910390f35b6101be60048036038101906101b9919061268a565b6105c7565b005b6101da60048036038101906101d59190612584565b6106df565b005b6101f660048036038101906101f19190612584565b61073f565b005b610212600480360381019061020d9190612718565b61075f565b60405161021f91906130d9565b60405180910390f35b610242600480360381019061023d91906127af565b61098b565b60405161024f9190612d4e565b60405180910390f35b610272600480360381019061026d919061251f565b610a3d565b60405161027f91906130d9565b60405180910390f35b610290610af5565b005b6102ac60048036038101906102a791906127af565b610b7d565b6040516102b99190612dde565b60405180910390f35b6102ca610bef565b6040516102d79190612d4e565b60405180910390f35b6102e8610c19565b6040516102f59190612df9565b60405180910390f35b6103186004803603810190610313919061264e565b610cab565b005b610334600480360381019061032f91906125d3565b610cc1565b005b610350600480360381019061034b91906127af565b610d23565b60405161035d9190612df9565b60405180910390f35b610380600480360381019061037b91906127d8565b610e75565b005b61039c60048036038101906103979190612548565b611037565b6040516103a99190612dde565b60405180910390f35b6103cc60048036038101906103c7919061251f565b6110cb565b005b60007f80ac58cd000000000000000000000000000000000000000000000000000000007bffffffffffffffffffffffffffffffffffffffffffffffffffffffff1916827bffffffffffffffffffffffffffffffffffffffffffffffffffffffff1916148061049957507f5b5e139f000000000000000000000000000000000000000000000000000000007bffffffffffffffffffffffffffffffffffffffffffffffffffffffff1916827bffffffffffffffffffffffffffffffffffffffffffffffffffffffff1916145b806104a957506104a88261125c565b5b9050919050565b6060600080546104bf906133b2565b80601f01602080910402602001604051908101604052809291908181526020018280546104eb906133b2565b80156105385780601f1061050d57610100808354040283529160200191610538565b820191906000526020600020905b81548152906001019060200180831161051b57829003601f168201915b5050505050905090565b600061054d826112c6565b61058c576040517f08c379a000000000000000000000000000000000000000000000000000000000815260040161058390612ff9565b60405180910390fd5b6004600083815260200190815260200160002060009054906101000a900473ffffffffffffffffffffffffffffffffffffffff169050919050565b60006105d28261098b565b90508073ffffffffffffffffffffffffffffffffffffffff168373ffffffffffffffffffffffffffffffffffffffff161415610643576040517f08c379a000000000000000000000000000000000000000000000000000000000815260040161063a90613059565b60405180910390fd5b8073ffffffffffffffffffffffffffffffffffffffff16610662611332565b73ffffffffffffffffffffffffffffffffffffffff16148061069157506106908161068b611332565b611037565b5b6106d0576040517f08c379a00000000000000000000000000000000000000000000000000000000081526004016106c790612f39565b60405180910390fd5b6106da838361133a565b505050565b6106f06106ea611332565b826113f3565b61072f576040517f08c379a000000000000000000000000000000000000000000000000000000000815260040161072690613099565b60405180910390fd5b61073a8383836114d1565b505050565b61075a83838360405180602001604052806000815250610cc1565b505050565b6000610769611332565b73ffffffffffffffffffffffffffffffffffffffff16610787610bef565b73ffffffffffffffffffffffffffffffffffffffff16146107dd576040517f08c379a00000000000000000000000000000000000000000000000000000000081526004016107d490613019565b60405180910390fd5b6000846040516020016107f09190612c72565b6040516020818303038152906040528051906020012060001c90506108153282611738565b600061084386868660405160200161082f93929190612ccf565b604051602081830303815290604052611756565b90506000816040516020016108589190612d2c565b60405160208183030381529060405290506108a76040518060400160405280601581526020017f0a2d2d2d2d2d2d2d2d2d2d2d2d2d2d2d2d2d2d2d2d00000000000000000000008152506111c3565b6108cf816040516020016108bb9190612cad565b6040516020818303038152906040526111c3565b61090d6040518060400160405280601581526020017f2d2d2d2d2d2d2d2d2d2d2d2d2d2d2d2d2d2d2d2d0a00000000000000000000008152506111c3565b6109178382611914565b61093a604051806060016040528060258152602001613c43602591398432611988565b7fbc6de13e88ade75989afa9102f04e1f7f7b667e6944e96172569e4e1285b7da3328460405161096b929190612db5565b60405180910390a161097e836001610e75565b8293505050509392505050565b6000806002600084815260200190815260200160002060009054906101000a900473ffffffffffffffffffffffffffffffffffffffff169050600073ffffffffffffffffffffffffffffffffffffffff168173ffffffffffffffffffffffffffffffffffffffff161415610a34576040517f08c379a0000000000000000000000000000000000000000000000000000000008152600401610a2b90612f79565b60405180910390fd5b80915050919050565b60008073ffffffffffffffffffffffffffffffffffffffff168273ffffffffffffffffffffffffffffffffffffffff161415610aae576040517f08c379a0000000000000000000000000000000000000000000000000000000008152600401610aa590612f59565b60405180910390fd5b600360008373ffffffffffffffffffffffffffffffffffffffff1673ffffffffffffffffffffffffffffffffffffffff168152602001908152602001600020549050919050565b610afd611332565b73ffffffffffffffffffffffffffffffffffffffff16610b1b610bef565b73ffffffffffffffffffffffffffffffffffffffff1614610b71576040517f08c379a0000000000000000000000000000000000000000000000000000000008152600401610b6890613019565b60405180910390fd5b610b7b6000611a27565b565b6000610b88826112c6565b610bc7576040517f08c379a0000000000000000000000000000000000000000000000000000000008152600401610bbe90613079565b60405180910390fd5b6008600083815260200190815260200160002060009054906101000a900460ff169050919050565b6000600760009054906101000a900473ffffffffffffffffffffffffffffffffffffffff16905090565b606060018054610c28906133b2565b80601f0160208091040260200160405190810160405280929190818152602001828054610c54906133b2565b8015610ca15780601f10610c7657610100808354040283529160200191610ca1565b820191906000526020600020905b815481529060010190602001808311610c8457829003601f168201915b5050505050905090565b610cbd610cb6611332565b8383611aed565b5050565b610cd2610ccc611332565b836113f3565b610d11576040517f08c379a0000000000000000000000000000000000000000000000000000000008152600401610d0890613099565b60405180910390fd5b610d1d84848484611c5a565b50505050565b6060610d2e826112c6565b610d6d576040517f08c379a0000000000000000000000000000000000000000000000000000000008152600401610d6490612fd9565b60405180910390fd5b6000600660008481526020019081526020016000208054610d8d906133b2565b80601f0160208091040260200160405190810160405280929190818152602001828054610db9906133b2565b8015610e065780601f10610ddb57610100808354040283529160200191610e06565b820191906000526020600020905b815481529060010190602001808311610de957829003601f168201915b505050505090506000610e17611cb6565b9050600081511415610e2d578192505050610e70565b600082511115610e62578082604051602001610e4a929190612c89565b60405160208183030381529060405292505050610e70565b610e6b84611ccd565b925050505b919050565b610e7d611332565b73ffffffffffffffffffffffffffffffffffffffff16610e9b610bef565b73ffffffffffffffffffffffffffffffffffffffff1614610ef1576040517f08c379a0000000000000000000000000000000000000000000000000000000008152600401610ee890613019565b60405180910390fd5b3273ffffffffffffffffffffffffffffffffffffffff16610f118361098b565b73ffffffffffffffffffffffffffffffffffffffff1614610f67576040517f08c379a0000000000000000000000000000000000000000000000000000000008152600401610f5e906130b9565b60405180910390fd5b610f70826112c6565b610faf576040517f08c379a0000000000000000000000000000000000000000000000000000000008152600401610fa690613079565b60405180910390fd5b806008600084815260200190815260200160002060006101000a81548160ff0219169083151502179055507f686577df9583cceed9cd6952b6104790a5da9c8c21d4551bc4c50bda5897aa05826008600085815260200190815260200160002060009054906101000a900460ff1660405161102b9291906130f4565b60405180910390a15050565b6000600560008473ffffffffffffffffffffffffffffffffffffffff1673ffffffffffffffffffffffffffffffffffffffff16815260200190815260200160002060008373ffffffffffffffffffffffffffffffffffffffff1673ffffffffffffffffffffffffffffffffffffffff16815260200190815260200160002060009054906101000a900460ff16905092915050565b6110d3611332565b73ffffffffffffffffffffffffffffffffffffffff166110f1610bef565b73ffffffffffffffffffffffffffffffffffffffff1614611147576040517f08c379a000000000000000000000000000000000000000000000000000000000815260040161113e90613019565b60405180910390fd5b600073ffffffffffffffffffffffffffffffffffffffff168173ffffffffffffffffffffffffffffffffffffffff1614156111b7576040517f08c379a00000000000000000000000000000000000000000000000000000000081526004016111ae90612e79565b60405180910390fd5b6111c081611a27565b50565b611259816040516024016111d79190612df9565b6040516020818303038152906040527f41304fac000000000000000000000000000000000000000000000000000000007bffffffffffffffffffffffffffffffffffffffffffffffffffffffff19166020820180517bffffffffffffffffffffffffffffffffffffffffffffffffffffffff8381831617835250505050611d74565b50565b60007f01ffc9a7000000000000000000000000000000000000000000000000000000007bffffffffffffffffffffffffffffffffffffffffffffffffffffffff1916827bffffffffffffffffffffffffffffffffffffffffffffffffffffffff1916149050919050565b60008073ffffffffffffffffffffffffffffffffffffffff166002600084815260200190815260200160002060009054906101000a900473ffffffffffffffffffffffffffffffffffffffff1673ffffffffffffffffffffffffffffffffffffffff1614159050919050565b600033905090565b816004600083815260200190815260200160002060006101000a81548173ffffffffffffffffffffffffffffffffffffffff021916908373ffffffffffffffffffffffffffffffffffffffff160217905550808273ffffffffffffffffffffffffffffffffffffffff166113ad8361098b565b73ffffffffffffffffffffffffffffffffffffffff167f8c5be1e5ebec7d5bd14f71427d1e84f3dd0314c0f7b2291e5b200ac8c7c3b92560405160405180910390a45050565b60006113fe826112c6565b61143d576040517f08c379a000000000000000000000000000000000000000000000000000000000815260040161143490612f19565b60405180910390fd5b60006114488361098b565b90508073ffffffffffffffffffffffffffffffffffffffff168473ffffffffffffffffffffffffffffffffffffffff16148061148a57506114898185611037565b5b806114c857508373ffffffffffffffffffffffffffffffffffffffff166114b084610542565b73ffffffffffffffffffffffffffffffffffffffff16145b91505092915050565b8273ffffffffffffffffffffffffffffffffffffffff166114f18261098b565b73ffffffffffffffffffffffffffffffffffffffff1614611547576040517f08c379a000000000000000000000000000000000000000000000000000000000815260040161153e90612e99565b60405180910390fd5b600073ffffffffffffffffffffffffffffffffffffffff168273ffffffffffffffffffffffffffffffffffffffff1614156115b7576040517f08c379a00000000000000000000000000000000000000000000000000000000081526004016115ae90612ed9565b60405180910390fd5b6115c2838383611d9d565b6115cd60008261133a565b6001600360008573ffffffffffffffffffffffffffffffffffffffff1673ffffffffffffffffffffffffffffffffffffffff168152602001908152602001600020600082825461161d91906132c8565b925050819055506001600360008473ffffffffffffffffffffffffffffffffffffffff1673ffffffffffffffffffffffffffffffffffffffff168152602001908152602001600020600082825461167491906131e7565b92505081905550816002600083815260200190815260200160002060006101000a81548173ffffffffffffffffffffffffffffffffffffffff021916908373ffffffffffffffffffffffffffffffffffffffff160217905550808273ffffffffffffffffffffffffffffffffffffffff168473ffffffffffffffffffffffffffffffffffffffff167fddf252ad1be2c89b69c2b068fc378daa952ba7f163c4a11628f55a4df523b3ef60405160405180910390a4611733838383611da2565b505050565b611752828260405180602001604052806000815250611da7565b5050565b6060600082519050600081141561177f576040518060200160405280600081525091505061190f565b6000600360028361179091906131e7565b61179a919061323d565b60046117a6919061326e565b905060006020826117b791906131e7565b67ffffffffffffffff8111156117f6577f4e487b7100000000000000000000000000000000000000000000000000000000600052604160045260246000fd5b6040519080825280601f01601f1916602001820160405280156118285781602001600182028036833780820191505090505b5090506000604051806060016040528060408152602001613c68604091399050600181016020830160005b868110156118cc5760038101905062ffffff818a015116603f8160121c168401518060081b905060ff603f83600c1c1686015116810190508060081b905060ff603f8360061c1686015116810190508060081b905060ff603f831686015116810190508060e01b90508084526004840193505050611853565b5060038606600181146118e657600281146118f657611901565b613d3d60f01b6002830352611901565b603d60f81b60018303525b508484525050819450505050505b919050565b61191d826112c6565b61195c576040517f08c379a000000000000000000000000000000000000000000000000000000000815260040161195390612f99565b60405180910390fd5b80600660008481526020019081526020016000209080519060200190611983929190612343565b505050565b611a228383836040516024016119a093929190612e1b565b6040516020818303038152906040527fe3849f79000000000000000000000000000000000000000000000000000000007bffffffffffffffffffffffffffffffffffffffffffffffffffffffff19166020820180517bffffffffffffffffffffffffffffffffffffffffffffffffffffffff8381831617835250505050611d74565b505050565b6000600760009054906101000a900473ffffffffffffffffffffffffffffffffffffffff16905081600760006101000a81548173ffffffffffffffffffffffffffffffffffffffff021916908373ffffffffffffffffffffffffffffffffffffffff1602179055508173ffffffffffffffffffffffffffffffffffffffff168173ffffffffffffffffffffffffffffffffffffffff167f8be0079c531659141344cd1fd0a4f28419497f9722a3daafe3b4186f6b6457e060405160405180910390a35050565b8173ffffffffffffffffffffffffffffffffffffffff168373ffffffffffffffffffffffffffffffffffffffff161415611b5c576040517f08c379a0000000000000000000000000000000000000000000000000000000008152600401611b5390612ef9565b60405180910390fd5b80600560008573ffffffffffffffffffffffffffffffffffffffff1673ffffffffffffffffffffffffffffffffffffffff16815260200190815260200160002060008473ffffffffffffffffffffffffffffffffffffffff1673ffffffffffffffffffffffffffffffffffffffff16815260200190815260200160002060006101000a81548160ff0219169083151502179055508173ffffffffffffffffffffffffffffffffffffffff168373ffffffffffffffffffffffffffffffffffffffff167f17307eab39ab6107e8899845ad3d59bd9653f200f220920489ca2b5937696c3183604051611c4d9190612dde565b60405180910390a3505050565b611c658484846114d1565b611c7184848484611e02565b611cb0576040517f08c379a0000000000000000000000000000000000000000000000000000000008152600401611ca790612e59565b60405180910390fd5b50505050565b606060405180602001604052806000815250905090565b6060611cd8826112c6565b611d17576040517f08c379a0000000000000000000000000000000000000000000000000000000008152600401611d0e90613039565b60405180910390fd5b6000611d21611cb6565b90506000815111611d415760405180602001604052806000815250611d6c565b80611d4b84611f99565b604051602001611d5c929190612c89565b6040516020818303038152906040525b915050919050565b60008151905060006a636f6e736f6c652e6c6f679050602083016000808483855afa5050505050565b505050565b505050565b611db18383612146565b611dbe6000848484611e02565b611dfd576040517f08c379a0000000000000000000000000000000000000000000000000000000008152600401611df490612e59565b60405180910390fd5b505050565b6000611e238473ffffffffffffffffffffffffffffffffffffffff16612320565b15611f8c578373ffffffffffffffffffffffffffffffffffffffff1663150b7a02611e4c611332565b8786866040518563ffffffff1660e01b8152600401611e6e9493929190612d69565b602060405180830381600087803b158015611e8857600080fd5b505af1925050508015611eb957506040513d601f19601f82011682018060405250810190611eb691906126ef565b60015b611f3c573d8060008114611ee9576040519150601f19603f3d011682016040523d82523d6000602084013e611eee565b606091505b50600081511415611f34576040517f08c379a0000000000000000000000000000000000000000000000000000000008152600401611f2b90612e59565b60405180910390fd5b805181602001fd5b63150b7a0260e01b7bffffffffffffffffffffffffffffffffffffffffffffffffffffffff1916817bffffffffffffffffffffffffffffffffffffffffffffffffffffffff191614915050611f91565b600190505b949350505050565b60606000821415611fe1576040518060400160405280600181526020017f30000000000000000000000000000000000000000000000000000000000000008152509050612141565b600082905060005b60008214612013578080611ffc90613415565b915050600a8261200c919061323d565b9150611fe9565b60008167ffffffffffffffff811115612055577f4e487b7100000000000000000000000000000000000000000000000000000000600052604160045260246000fd5b6040519080825280601f01601f1916602001820160405280156120875781602001600182028036833780820191505090505b5090505b6000851461213a576001826120a091906132c8565b9150600a856120af919061345e565b60306120bb91906131e7565b60f81b8183815181106120f7577f4e487b7100000000000000000000000000000000000000000000000000000000600052603260045260246000fd5b60200101907effffffffffffffffffffffffffffffffffffffffffffffffffffffffffffff1916908160001a905350600a85612133919061323d565b945061208b565b8093505050505b919050565b600073ffffffffffffffffffffffffffffffffffffffff168273ffffffffffffffffffffffffffffffffffffffff1614156121b6576040517f08c379a00000000000000000000000000000000000000000000000000000000081526004016121ad90612fb9565b60405180910390fd5b6121bf816112c6565b156121ff576040517f08c379a00000000000000000000000000000000000000000000000000000000081526004016121f690612eb9565b60405180910390fd5b61220b60008383611d9d565b6001600360008473ffffffffffffffffffffffffffffffffffffffff1673ffffffffffffffffffffffffffffffffffffffff168152602001908152602001600020600082825461225b91906131e7565b92505081905550816002600083815260200190815260200160002060006101000a81548173ffffffffffffffffffffffffffffffffffffffff021916908373ffffffffffffffffffffffffffffffffffffffff160217905550808273ffffffffffffffffffffffffffffffffffffffff16600073ffffffffffffffffffffffffffffffffffffffff167fddf252ad1be2c89b69c2b068fc378daa952ba7f163c4a11628f55a4df523b3ef60405160405180910390a461231c60008383611da2565b5050565b6000808273ffffffffffffffffffffffffffffffffffffffff163b119050919050565b82805461234f906133b2565b90600052602060002090601f01602090048101928261237157600085556123b8565b82601f1061238a57805160ff19168380011785556123b8565b828001600101855582156123b8579182015b828111156123b757825182559160200191906001019061239c565b5b5090506123c591906123c9565b5090565b5b808211156123e25760008160009055506001016123ca565b5090565b60006123f96123f484613142565b61311d565b90508281526020810184848401111561241157600080fd5b61241c848285613370565b509392505050565b600061243761243284613173565b61311d565b90508281526020810184848401111561244f57600080fd5b61245a848285613370565b509392505050565b60008135905061247181613be6565b92915050565b60008135905061248681613bfd565b92915050565b60008135905061249b81613c14565b92915050565b6000815190506124b081613c14565b92915050565b600082601f8301126124c757600080fd5b81356124d78482602086016123e6565b91505092915050565b600082601f8301126124f157600080fd5b8135612501848260208601612424565b91505092915050565b60008135905061251981613c2b565b92915050565b60006020828403121561253157600080fd5b600061253f84828501612462565b91505092915050565b6000806040838503121561255b57600080fd5b600061256985828601612462565b925050602061257a85828601612462565b9150509250929050565b60008060006060848603121561259957600080fd5b60006125a786828701612462565b93505060206125b886828701612462565b92505060406125c98682870161250a565b9150509250925092565b600080600080608085870312156125e957600080fd5b60006125f787828801612462565b945050602061260887828801612462565b93505060406126198782880161250a565b925050606085013567ffffffffffffffff81111561263657600080fd5b612642878288016124b6565b91505092959194509250565b6000806040838503121561266157600080fd5b600061266f85828601612462565b925050602061268085828601612477565b9150509250929050565b6000806040838503121561269d57600080fd5b60006126ab85828601612462565b92505060206126bc8582860161250a565b9150509250929050565b6000602082840312156126d857600080fd5b60006126e68482850161248c565b91505092915050565b60006020828403121561270157600080fd5b600061270f848285016124a1565b91505092915050565b60008060006060848603121561272d57600080fd5b600084013567ffffffffffffffff81111561274757600080fd5b612753868287016124e0565b935050602084013567ffffffffffffffff81111561277057600080fd5b61277c868287016124e0565b925050604084013567ffffffffffffffff81111561279957600080fd5b6127a5868287016124e0565b9150509250925092565b6000602082840312156127c157600080fd5b60006127cf8482850161250a565b91505092915050565b600080604083850312156127eb57600080fd5b60006127f98582860161250a565b925050602061280a85828601612477565b9150509250929050565b61281d816132fc565b82525050565b61282c8161330e565b82525050565b600061283d826131a4565b61284781856131ba565b935061285781856020860161337f565b6128608161354b565b840191505092915050565b6000612876826131af565b61288081856131cb565b935061289081856020860161337f565b6128998161354b565b840191505092915050565b60006128af826131af565b6128b981856131dc565b93506128c981856020860161337f565b80840191505092915050565b60006128e26025836131dc565b91506128ed8261355c565b602582019050919050565b60006129056013836131dc565b9150612910826135ab565b601382019050919050565b60006129286032836131cb565b9150612933826135d4565b604082019050919050565b600061294b6026836131cb565b915061295682613623565b604082019050919050565b600061296e6025836131cb565b915061297982613672565b604082019050919050565b6000612991601c836131cb565b915061299c826136c1565b602082019050919050565b60006129b46024836131cb565b91506129bf826136ea565b604082019050919050565b60006129d76019836131cb565b91506129e282613739565b602082019050919050565b60006129fa602c836131cb565b9150612a0582613762565b604082019050919050565b6000612a1d6038836131cb565b9150612a28826137b1565b604082019050919050565b6000612a40602a836131cb565b9150612a4b82613800565b604082019050919050565b6000612a636029836131cb565b9150612a6e8261384f565b604082019050919050565b6000612a86602e836131cb565b9150612a918261389e565b604082019050919050565b6000612aa96002836131dc565b9150612ab4826138ed565b600282019050919050565b6000612acc6020836131cb565b9150612ad782613916565b602082019050919050565b6000612aef600d836131dc565b9150612afa8261393f565b600d82019050919050565b6000612b126031836131cb565b9150612b1d82613968565b604082019050919050565b6000612b35602c836131cb565b9150612b40826139b7565b604082019050919050565b6000612b586020836131cb565b9150612b6382613a06565b602082019050919050565b6000612b7b602f836131cb565b9150612b8682613a2f565b604082019050919050565b6000612b9e600a836131dc565b9150612ba982613a7e565b600a82019050919050565b6000612bc16021836131cb565b9150612bcc82613aa7565b604082019050919050565b6000612be46020836131cb565b9150612bef82613af6565b602082019050919050565b6000612c07601d836131dc565b9150612c1282613b1f565b601d82019050919050565b6000612c2a6031836131cb565b9150612c3582613b48565b604082019050919050565b6000612c4d6031836131cb565b9150612c5882613b97565b604082019050919050565b612c6c81613366565b82525050565b6000612c7e82846128a4565b915081905092915050565b6000612c9582856128a4565b9150612ca182846128a4565b91508190509392505050565b6000612cb8826128d5565b9150612cc482846128a4565b915081905092915050565b6000612cda82612b91565b9150612ce682866128a4565b9150612cf1826128f8565b9150612cfd82856128a4565b9150612d0882612ae2565b9150612d1482846128a4565b9150612d1f82612a9c565b9150819050949350505050565b6000612d3782612bfa565b9150612d4382846128a4565b915081905092915050565b6000602082019050612d636000830184612814565b92915050565b6000608082019050612d7e6000830187612814565b612d8b6020830186612814565b612d986040830185612c63565b8181036060830152612daa8184612832565b905095945050505050565b6000604082019050612dca6000830185612814565b612dd76020830184612c63565b9392505050565b6000602082019050612df36000830184612823565b92915050565b60006020820190508181036000830152612e13818461286b565b905092915050565b60006060820190508181036000830152612e35818661286b565b9050612e446020830185612c63565b612e516040830184612814565b949350505050565b60006020820190508181036000830152612e728161291b565b9050919050565b60006020820190508181036000830152612e928161293e565b9050919050565b60006020820190508181036000830152612eb281612961565b9050919050565b60006020820190508181036000830152612ed281612984565b9050919050565b60006020820190508181036000830152612ef2816129a7565b9050919050565b60006020820190508181036000830152612f12816129ca565b9050919050565b60006020820190508181036000830152612f32816129ed565b9050919050565b60006020820190508181036000830152612f5281612a10565b9050919050565b60006020820190508181036000830152612f7281612a33565b9050919050565b60006020820190508181036000830152612f9281612a56565b9050919050565b60006020820190508181036000830152612fb281612a79565b9050919050565b60006020820190508181036000830152612fd281612abf565b9050919050565b60006020820190508181036000830152612ff281612b05565b9050919050565b6000602082019050818103600083015261301281612b28565b9050919050565b6000602082019050818103600083015261303281612b4b565b9050919050565b6000602082019050818103600083015261305281612b6e565b9050919050565b6000602082019050818103600083015261307281612bb4565b9050919050565b6000602082019050818103600083015261309281612bd7565b9050919050565b600060208201905081810360008301526130b281612c1d565b9050919050565b600060208201905081810360008301526130d281612c40565b9050919050565b60006020820190506130ee6000830184612c63565b92915050565b60006040820190506131096000830185612c63565b6131166020830184612823565b9392505050565b6000613127613138565b905061313382826133e4565b919050565b6000604051905090565b600067ffffffffffffffff82111561315d5761315c61351c565b5b6131668261354b565b9050602081019050919050565b600067ffffffffffffffff82111561318e5761318d61351c565b5b6131978261354b565b9050602081019050919050565b600081519050919050565b600081519050919050565b600082825260208201905092915050565b600082825260208201905092915050565b600081905092915050565b60006131f282613366565b91506131fd83613366565b9250827fffffffffffffffffffffffffffffffffffffffffffffffffffffffffffffffff038211156132325761323161348f565b5b828201905092915050565b600061324882613366565b915061325383613366565b925082613263576132626134be565b5b828204905092915050565b600061327982613366565b915061328483613366565b9250817fffffffffffffffffffffffffffffffffffffffffffffffffffffffffffffffff04831182151516156132bd576132bc61348f565b5b828202905092915050565b60006132d382613366565b91506132de83613366565b9250828210156132f1576132f061348f565b5b828203905092915050565b600061330782613346565b9050919050565b60008115159050919050565b60007fffffffff0000000000000000000000000000000000000000000000000000000082169050919050565b600073ffffffffffffffffffffffffffffffffffffffff82169050919050565b6000819050919050565b82818337600083830152505050565b60005b8381101561339d578082015181840152602081019050613382565b838111156133ac576000848401525b50505050565b600060028204905060018216806133ca57607f821691505b602082108114156133de576133dd6134ed565b5b50919050565b6133ed8261354b565b810181811067ffffffffffffffff8211171561340c5761340b61351c565b5b80604052505050565b600061342082613366565b91507fffffffffffffffffffffffffffffffffffffffffffffffffffffffffffffffff8214156134535761345261348f565b5b600182019050919050565b600061346982613366565b915061347483613366565b925082613484576134836134be565b5b828206905092915050565b7f4e487b7100000000000000000000000000000000000000000000000000000000600052601160045260246000fd5b7f4e487b7100000000000000000000000000000000000000000000000000000000600052601260045260246000fd5b7f4e487b7100000000000000000000000000000000000000000000000000000000600052602260045260246000fd5b7f4e487b7100000000000000000000000000000000000000000000000000000000600052604160045260246000fd5b6000601f19601f8301169050919050565b7f68747470733a2f2f6e6674707265766965772e30786465762e636f6465732f3f60008201527f636f64653d000000000000000000000000000000000000000000000000000000602082015250565b7f222c20226465736372697074696f6e223a202200000000000000000000000000600082015250565b7f4552433732313a207472616e7366657220746f206e6f6e20455243373231526560008201527f63656976657220696d706c656d656e7465720000000000000000000000000000602082015250565b7f4f776e61626c653a206e6577206f776e657220697320746865207a65726f206160008201527f6464726573730000000000000000000000000000000000000000000000000000602082015250565b7f4552433732313a207472616e736665722066726f6d20696e636f72726563742060008201527f6f776e6572000000000000000000000000000000000000000000000000000000602082015250565b7f4552433732313a20746f6b656e20616c7265616479206d696e74656400000000600082015250565b7f4552433732313a207472616e7366657220746f20746865207a65726f2061646460008201527f7265737300000000000000000000000000000000000000000000000000000000602082015250565b7f4552433732313a20617070726f766520746f2063616c6c657200000000000000600082015250565b7f4552433732313a206f70657261746f7220717565727920666f72206e6f6e657860008201527f697374656e7420746f6b656e0000000000000000000000000000000000000000602082015250565b7f4552433732313a20617070726f76652063616c6c6572206973206e6f74206f7760008201527f6e6572206e6f7220617070726f76656420666f7220616c6c0000000000000000602082015250565b7f4552433732313a2062616c616e636520717565727920666f7220746865207a6560008201527f726f206164647265737300000000000000000000000000000000000000000000602082015250565b7f4552433732313a206f776e657220717565727920666f72206e6f6e657869737460008201527f656e7420746f6b656e0000000000000000000000000000000000000000000000602082015250565b7f45524337323155524953746f726167653a2055524920736574206f66206e6f6e60008201527f6578697374656e7420746f6b656e000000000000000000000000000000000000602082015250565b7f227d000000000000000000000000000000000000000000000000000000000000600082015250565b7f4552433732313a206d696e7420746f20746865207a65726f2061646472657373600082015250565b7f222c2022696d616765223a202200000000000000000000000000000000000000600082015250565b7f45524337323155524953746f726167653a2055524920717565727920666f722060008201527f6e6f6e6578697374656e7420746f6b656e000000000000000000000000000000602082015250565b7f4552433732313a20617070726f76656420717565727920666f72206e6f6e657860008201527f697374656e7420746f6b656e0000000000000000000000000000000000000000602082015250565b7f4f776e61626c653a2063616c6c6572206973206e6f7420746865206f776e6572600082015250565b7f4552433732314d657461646174613a2055524920717565727920666f72206e6f60008201527f6e6578697374656e7420746f6b656e0000000000000000000000000000000000602082015250565b7f7b226e616d65223a202200000000000000000000000000000000000000000000600082015250565b7f4552433732313a20617070726f76616c20746f2063757272656e74206f776e6560008201527f7200000000000000000000000000000000000000000000000000000000000000602082015250565b7f43726561746f724e46543a20546f6b656e20646f6573206e6f74206578697374600082015250565b7f646174613a6170706c69636174696f6e2f6a736f6e3b6261736536342c000000600082015250565b7f4552433732313a207472616e736665722063616c6c6572206973206e6f74206f60008201527f776e6572206e6f7220617070726f766564000000000000000000000000000000602082015250565b7f43726561746f724e46543a2041646472657373206973206e6f7420746865206f60008201527f776e6572206f662074686520746f6b656e000000000000000000000000000000602082015250565b613bef816132fc565b8114613bfa57600080fd5b50565b613c068161330e565b8114613c1157600080fd5b50565b613c1d8161331a565b8114613c2857600080fd5b50565b613c3481613366565b8114613c3f57600080fd5b5056fe416e204e465420772f20494420257320686173206265656e206d696e74656420746f2025734142434445464748494a4b4c4d4e4f505152535455565758595a6162636465666768696a6b6c6d6e6f707172737475767778797a303132333435363738392b2fa264697066735822122058e3bfd7f38eefd40a3d9ff8318d8668d1d5bf489007131f1b56b6efff02101d64736f6c63430008040033",
  "linkReferences": {},
  "deployedLinkReferences": {}
}